{
    "_format": "hh-sol-artifact-1",
    "contractName": "Greety",
    "sourceName": "contracts/Deploy_Greet.sol",
    "abi": [
        {
            "inputs": [
                {
                    "internalType": "string",
                    "name": "_greeting",
                    "type": "string"
                }
            ],
            "stateMutability": "nonpayable",
            "type": "constructor"
        },
        {
            "anonymous": false,
            "inputs": [
                {
                    "indexed": false,
                    "internalType": "string",
                    "name": "oldGreeting",
                    "type": "string"
                },
                {
                    "indexed": false,
                    "internalType": "string",
                    "name": "newGreeting",
                    "type": "string"
                }
            ],
            "name": "UpdateGreeting",
            "type": "event"
        },
        {
            "anonymous": false,
            "inputs": [
                {
                    "indexed": false,
                    "internalType": "uint256",
                    "name": "oldTime",
                    "type": "uint256"
                },
                {
                    "indexed": false,
                    "internalType": "uint256",
                    "name": "newUpdatedTime",
                    "type": "uint256"
                }
            ],
            "name": "UpdateTime",
            "type": "event"
        },
        {
            "inputs": [],
            "name": "getGreeting",
            "outputs": [
                {
                    "internalType": "string",
                    "name": "",
                    "type": "string"
                }
            ],
            "stateMutability": "view",
            "type": "function"
        },
        {
            "inputs": [],
            "name": "lastUpdated",
            "outputs": [
                {
                    "internalType": "uint256",
                    "name": "",
                    "type": "uint256"
                }
            ],
            "stateMutability": "view",
            "type": "function"
        },
        {
            "inputs": [],
            "name": "owner",
            "outputs": [
                {
                    "internalType": "address",
                    "name": "",
                    "type": "address"
                }
            ],
            "stateMutability": "view",
            "type": "function"
        },
        {
            "inputs": [
                {
                    "internalType": "string",
                    "name": "_greeting",
                    "type": "string"
                }
            ],
            "name": "setGreeting",
            "outputs": [],
            "stateMutability": "nonpayable",
            "type": "function"
        },
        {
            "inputs": [
                {
                    "internalType": "string",
                    "name": "_greeting",
                    "type": "string"
                }
            ],
            "name": "setGreetingPay",
            "outputs": [],
            "stateMutability": "payable",
            "type": "function"
        },
        {
            "inputs": [
                {
                    "internalType": "address",
                    "name": "_i721",
                    "type": "address"
                },
                {
                    "internalType": "uint256",
                    "name": "tokenId",
                    "type": "uint256"
                }
            ],
            "name": "withdrawERC721",
            "outputs": [],
            "stateMutability": "nonpayable",
            "type": "function"
        },
        {
            "inputs": [],
            "name": "withdrawETH",
            "outputs": [],
            "stateMutability": "payable",
            "type": "function"
        },
        {
            "inputs": [
                {
                    "internalType": "address",
                    "name": "_token",
                    "type": "address"
                },
                {
                    "internalType": "uint256",
                    "name": "_amount",
                    "type": "uint256"
                }
            ],
            "name": "withdrawTokens",
            "outputs": [],
            "stateMutability": "nonpayable",
            "type": "function"
        },
        {
            "stateMutability": "payable",
            "type": "receive"
        }
    ],
    "bytecode": "0x60806040523480156200001157600080fd5b50604051620013d0380380620013d08339818101604052810190620000379190620001d8565b62000047620000ae60201b60201c565b600260006101000a81548173ffffffffffffffffffffffffffffffffffffffff021916908373ffffffffffffffffffffffffffffffffffffffff16021790555080600090805190602001906200009f929190620000b6565b5042600181905550506200038d565b600033905090565b828054620000c490620002b2565b90600052602060002090601f016020900481019282620000e8576000855562000134565b82601f106200010357805160ff191683800117855562000134565b8280016001018555821562000134579182015b828111156200013357825182559160200191906001019062000116565b5b50905062000143919062000147565b5090565b5b808211156200016257600081600090555060010162000148565b5090565b60006200017d620001778462000246565b6200021d565b9050828152602081018484840111156200019657600080fd5b620001a38482856200027c565b509392505050565b600082601f830112620001bd57600080fd5b8151620001cf84826020860162000166565b91505092915050565b600060208284031215620001eb57600080fd5b600082015167ffffffffffffffff8111156200020657600080fd5b6200021484828501620001ab565b91505092915050565b6000620002296200023c565b9050620002378282620002e8565b919050565b6000604051905090565b600067ffffffffffffffff8211156200026457620002636200034d565b5b6200026f826200037c565b9050602081019050919050565b60005b838110156200029c5780820151818401526020810190506200027f565b83811115620002ac576000848401525b50505050565b60006002820490506001821680620002cb57607f821691505b60208210811415620002e257620002e16200031e565b5b50919050565b620002f3826200037c565b810181811067ffffffffffffffff821117156200031557620003146200034d565b5b80604052505050565b7f4e487b7100000000000000000000000000000000000000000000000000000000600052602260045260246000fd5b7f4e487b7100000000000000000000000000000000000000000000000000000000600052604160045260246000fd5b6000601f19601f8301169050919050565b611033806200039d6000396000f3fe60806040526004361061007f5760003560e01c8063d0b06f5d1161004e578063d0b06f5d14610124578063e086e5ec1461014f578063f3e414f814610159578063fe50cc721461018257610086565b806306b091f91461008b57806316cf9cbb146100b45780638da5cb5b146100d0578063a4136862146100fb57610086565b3661008657005b600080fd5b34801561009757600080fd5b506100b260048036038101906100ad9190610a68565b6101ad565b005b6100ce60048036038101906100c99190610acd565b6102f8565b005b3480156100dc57600080fd5b506100e5610468565b6040516100f29190610c2b565b60405180910390f35b34801561010757600080fd5b50610122600480360381019061011d9190610acd565b61048e565b005b34801561013057600080fd5b506101396105bb565b6040516101469190610d3f565b60405180910390f35b6101576105c5565b005b34801561016557600080fd5b50610180600480360381019061017b9190610a68565b6106c7565b005b34801561018e57600080fd5b50610197610884565b6040516101a49190610ca6565b60405180910390f35b6101b5610916565b73ffffffffffffffffffffffffffffffffffffffff16600260009054906101000a900473ffffffffffffffffffffffffffffffffffffffff1673ffffffffffffffffffffffffffffffffffffffff1614610244576040517f08c379a000000000000000000000000000000000000000000000000000000000815260040161023b90610d1f565b60405180910390fd5b8173ffffffffffffffffffffffffffffffffffffffff1663a9059cbb600260009054906101000a900473ffffffffffffffffffffffffffffffffffffffff16836040518363ffffffff1660e01b81526004016102a1929190610c7d565b602060405180830381600087803b1580156102bb57600080fd5b505af11580156102cf573d6000803e3d6000fd5b505050506040513d601f19601f820116820180604052508101906102f39190610aa4565b505050565b6000341161033b576040517f08c379a000000000000000000000000000000000000000000000000000000000815260040161033290610cff565b60405180910390fd5b600080805461034990610e94565b80601f016020809104026020016040519081016040528092919081815260200182805461037590610e94565b80156103c25780601f10610397576101008083540402835291602001916103c2565b820191906000526020600020905b8154815290600101906020018083116103a557829003601f168201915b505050505090506000600154905082600090805190602001906103e692919061091e565b50426001819055507fe6f41fbbe51de2560d8efad135451b4b2bf7bd63466cbc99ede84225e07e0262826000604051610420929190610cc8565b60405180910390a17f699672a354787cc0595644e6006a718762118bb63cd10b98e37c02e0108151648160015460405161045b929190610d5a565b60405180910390a1505050565b600260009054906101000a900473ffffffffffffffffffffffffffffffffffffffff1681565b600080805461049c90610e94565b80601f01602080910402602001604051908101604052809291908181526020018280546104c890610e94565b80156105155780601f106104ea57610100808354040283529160200191610515565b820191906000526020600020905b8154815290600101906020018083116104f857829003601f168201915b5050505050905060006001549050826000908051906020019061053992919061091e565b50426001819055507fe6f41fbbe51de2560d8efad135451b4b2bf7bd63466cbc99ede84225e07e0262826000604051610573929190610cc8565b60405180910390a17f699672a354787cc0595644e6006a718762118bb63cd10b98e37c02e010815164816001546040516105ae929190610d5a565b60405180910390a1505050565b6000600154905090565b6105cd610916565b73ffffffffffffffffffffffffffffffffffffffff16600260009054906101000a900473ffffffffffffffffffffffffffffffffffffffff1673ffffffffffffffffffffffffffffffffffffffff161461065c576040517f08c379a000000000000000000000000000000000000000000000000000000000815260040161065390610d1f565b60405180910390fd5b600260009054906101000a900473ffffffffffffffffffffffffffffffffffffffff1673ffffffffffffffffffffffffffffffffffffffff166108fc479081150290604051600060405180830381858888f193505050501580156106c4573d6000803e3d6000fd5b50565b6106cf610916565b73ffffffffffffffffffffffffffffffffffffffff16600260009054906101000a900473ffffffffffffffffffffffffffffffffffffffff1673ffffffffffffffffffffffffffffffffffffffff161461075e576040517f08c379a000000000000000000000000000000000000000000000000000000000815260040161075590610d1f565b60405180910390fd5b8173ffffffffffffffffffffffffffffffffffffffff166342842e0e30600260009054906101000a900473ffffffffffffffffffffffffffffffffffffffff16846040518463ffffffff1660e01b81526004016107bd93929190610c46565b600060405180830381600087803b1580156107d757600080fd5b505af11580156107eb573d6000803e3d6000fd5b505050508173ffffffffffffffffffffffffffffffffffffffff166323b872dd30600260009054906101000a900473ffffffffffffffffffffffffffffffffffffffff16846040518463ffffffff1660e01b815260040161084e93929190610c46565b600060405180830381600087803b15801561086857600080fd5b505af115801561087c573d6000803e3d6000fd5b505050505050565b60606000805461089390610e94565b80601f01602080910402602001604051908101604052809291908181526020018280546108bf90610e94565b801561090c5780601f106108e15761010080835404028352916020019161090c565b820191906000526020600020905b8154815290600101906020018083116108ef57829003601f168201915b5050505050905090565b600033905090565b82805461092a90610e94565b90600052602060002090601f01602090048101928261094c5760008555610993565b82601f1061096557805160ff1916838001178555610993565b82800160010185558215610993579182015b82811115610992578251825591602001919060010190610977565b5b5090506109a091906109a4565b5090565b5b808211156109bd5760008160009055506001016109a5565b5090565b60006109d46109cf84610da8565b610d83565b9050828152602081018484840111156109ec57600080fd5b6109f7848285610e52565b509392505050565b600081359050610a0e81610fb8565b92915050565b600081519050610a2381610fcf565b92915050565b600082601f830112610a3a57600080fd5b8135610a4a8482602086016109c1565b91505092915050565b600081359050610a6281610fe6565b92915050565b60008060408385031215610a7b57600080fd5b6000610a89858286016109ff565b9250506020610a9a85828601610a53565b9150509250929050565b600060208284031215610ab657600080fd5b6000610ac484828501610a14565b91505092915050565b600060208284031215610adf57600080fd5b600082013567ffffffffffffffff811115610af957600080fd5b610b0584828501610a29565b91505092915050565b610b1781610e0a565b82525050565b6000610b2882610dee565b610b328185610df9565b9350610b42818560208601610e61565b610b4b81610f55565b840191505092915050565b60008154610b6381610e94565b610b6d8186610df9565b94506001821660008114610b885760018114610b9a57610bcd565b60ff1983168652602086019350610bcd565b610ba385610dd9565b60005b83811015610bc557815481890152600182019150602081019050610ba6565b808801955050505b50505092915050565b6000610be3601e83610df9565b9150610bee82610f66565b602082019050919050565b6000610c06602083610df9565b9150610c1182610f8f565b602082019050919050565b610c2581610e48565b82525050565b6000602082019050610c406000830184610b0e565b92915050565b6000606082019050610c5b6000830186610b0e565b610c686020830185610b0e565b610c756040830184610c1c565b949350505050565b6000604082019050610c926000830185610b0e565b610c9f6020830184610c1c565b9392505050565b60006020820190508181036000830152610cc08184610b1d565b905092915050565b60006040820190508181036000830152610ce28185610b1d565b90508181036020830152610cf68184610b56565b90509392505050565b60006020820190508181036000830152610d1881610bd6565b9050919050565b60006020820190508181036000830152610d3881610bf9565b9050919050565b6000602082019050610d546000830184610c1c565b92915050565b6000604082019050610d6f6000830185610c1c565b610d7c6020830184610c1c565b9392505050565b6000610d8d610d9e565b9050610d998282610ec6565b919050565b6000604051905090565b600067ffffffffffffffff821115610dc357610dc2610f26565b5b610dcc82610f55565b9050602081019050919050565b60008190508160005260206000209050919050565b600081519050919050565b600082825260208201905092915050565b6000610e1582610e28565b9050919050565b60008115159050919050565b600073ffffffffffffffffffffffffffffffffffffffff82169050919050565b6000819050919050565b82818337600083830152505050565b60005b83811015610e7f578082015181840152602081019050610e64565b83811115610e8e576000848401525b50505050565b60006002820490506001821680610eac57607f821691505b60208210811415610ec057610ebf610ef7565b5b50919050565b610ecf82610f55565b810181811067ffffffffffffffff82111715610eee57610eed610f26565b5b80604052505050565b7f4e487b7100000000000000000000000000000000000000000000000000000000600052602260045260246000fd5b7f4e487b7100000000000000000000000000000000000000000000000000000000600052604160045260246000fd5b6000601f19601f8301169050919050565b7f63727970746f2076616c75652063616e6e6f74206265205a65726f2830290000600082015250565b7f4f776e61626c653a2063616c6c6572206973206e6f7420746865206f776e6572600082015250565b610fc181610e0a565b8114610fcc57600080fd5b50565b610fd881610e1c565b8114610fe357600080fd5b50565b610fef81610e48565b8114610ffa57600080fd5b5056fea2646970667358221220208c307e3220326dc318f75cf8bafd2a1d89b436aa31a1d7b0e6b2b556690b1864736f6c63430008040033",
    "linkReferences": {},
    "deployedLinkReferences": {}
}